S0150000736B657463685F7365703036612E737265631F
S11300000C9462000C948A000C948A000C948A006C
S11300100C948A000C948A000C948A000C948A0034
S11300200C948A000C948A000C948A000C948A0024
S11300300C948A000C948A000C948A000C948A0014
S11300400C94D9060C948A000C944E050C948005EB
S11300500C948A000C948A000C948A000C948A00F4
S11300600C948A000C948A0000000008000201002D
S1130070000304070000000000000000010204085F
S113008010204080010204081020010204081020FE
S1130090040404040404040402020202020203032A
S11300A003030303000000002300260029000000CE
S11300B00000250028002B00000000002400270079
S11300C02A00B00511241FBECFEFD8E0DEBFCDBF9C
S11300D011E0A0E0B1E0E6EBF1E102C005900D9281
S11300E0A032B107D9F721E0A0E2B1E001C01D922E
S11300F0A63CB207E1F710E0C2E6D0E004C02197C5
S1130100FE010E94D308C136D107C9F70E94DE055B
S11301100C94D9080C940000CF92DF92EF92FF92D6
S11301200F931F93E82FF92F05C0015011092109DE
S1130130310961F1908196239417B9F305C00150F8
S113014011092109310911F1908196239413F7CFF4
S1130150C12CD12CE12CF12C0AC08FEFC81AD80A7B
S1130160E80AF80A0C151D052E053F0579F0808173
S11301708623841791F36C2D7D2D8E2D9F2D1F9139
S11301800F91FF90EF90DF90CF90089560E070E0C2
S113019080E090E01F910F91FF90EF90DF90CF905F
S11301A0089561E080910E010E94F30761E080915F
S11301B00C010E94F30761E080910A010E94F30799
S11301C061E0809108010E94F30761E080910601DB
S11301D00E94F30761E0809104010E94F30761E04B
S11301E0809102010E94F30761E08DE00E94F30711
S11301F060E08CE00E94F30761E08BE00E94F3076B
S113020060E08AE00E94F30726E040E855E260E0FF
S113021070E080E291E00C94E904CF93DF930297BD
S113022019F4DAE0CBE002C0DCE0CDE060E08C2F32
S11302300E942F0881E090E00E94840761E08C2FE7
S11302400E942F088AE090E00E94840760E08C2FCF
S11302500E942F0820E432E44FE050E061E08D2F4B
S11302600E945F0822E030E040E050E00E94B408C1
S1130270CA01B9010E9497032DEC3CEC48EE51E40D
S11302800E94ED020E945F0321E06A30710581053E
S113029091050CF020E0822FDF91CF910895EF9229
S11302A0FF920F931F93CF93DF938C017B01C2E3E3
S11302B0D0E06AE070E080E090E00E944807219777
S11302C0C8010E940D01811105C0C230D1053CF066
S11302D080E008C0C7010E940D018823B1F3209774
S11302E041F781E0DF91CF911F910F91FF90EF9043
S11302F00895CF93DF93EC0180E291E00E94230400
S1130300892B49F44AE050E0BE0180E291E0DF919C
S1130310CF910C94D206DF91CF91089584E090E0C0
S11303200E94790161E080910C010C942F0883E014
S113033090E00E94790161E080910A010E942F08F7
S113034064E670E080E090E00C94480785E090E07B
S11303500E94790161E080910E010E942F0864E6F9
S113036070E080E090E00C944807CF93DF9381E045
S113037090E00E947901C6E0D1E061E088810E94AA
S11303802F086091000170910101072E000C880B69
S1130390990B0E94480760E088810E942F086091B1
S11303A0000170910101072E000C880B990BDF915D
S11303B0CF910C944807CF93DF9382E090E00E94A2
S11303C07901C8E0D1E061E088810E942F08609142
S11303D0000170910101072E000C880B990B0E94FB
S11303E0480760E088810E942F08609100017091A5
S11303F00101072E000C880B990BDF91CF910C940F
S11304004807CF92DF92EF92FF920F931F93CF93FF
S1130410DF9360E080910E010E942F0860E08091DC
S11304200C010E942F0860E080910A010E942F08AD
S113043060E0809108010E942F0860E0809106012D
S11304400E942F0860E0809104010E942F0860E060
S1130450809102010E942F0861E0809104010E94B2
S11304602F0860E0809102010E942F0881E090E053
S11304700E940D0181110CC082E090E00E940D01E8
S1130480882351F3EE24E394F12CC2E0D0E005C0BC
S113049092E0E92EF12CC1E0D0E005E010E08AE022
S11304A0C82ED12C60E0809104010E942F0861E0E5
S11304B0809102010E942F0865E070E080E090E0E6
S11304C00E944807C114D10409F469C0C7010E94FD
S11304D00D01882309F43FC0EA94EF28F1F461E0A8
S11304E070E0CE010E944F018823A1F00E948E018A
S11304F0CE010E940D018823C1F181E090E00E94A9
S11305000D01882391F16FE070E080E090E00E949B
S11305104807EECF0E94970128C062E070E0CE0148
S11305200E944F018823A1F00E948E01CE010E94F7
S11305300D018823D1F082E090E00E940D01882310
S1130540A1F06FE070E080E090E00E944807EECFF9
S11305500E94A6010AC065E070E080E090E00E947D
S1130560480781E0C81AD108ADCF64E670E080E0A6
S113057090E00E94480764E670E080E090E00E940A
S1130580480764EF71E080E090E0DF91CF911F9124
S11305900F91FF90EF90DF90CF900C94480701509B
S11305A0110909F07FCFCE010E940D01882309F4BF
S11305B053CF219749F481E090E00E940D018823F4
S11305C001F30E94B501F7CF82E090E00E940D0193
S11305D08823B9F20E94DB01F7CF0E9401030C9437
S11305E0E9030E94E20358F00E94DB0340F029F47F
S11305F05F3F29F00C94D20351110C941D040C9408
S1130600D8030E94FA0368F39923B1F3552391F3B5
S1130610951B550BBB27AA2762177307840738F06D
S11306209F5F5F4F220F331F441FAA1FA9F335D0CA
S11306300E2E3AF0E0E832D091505040E695001C7E
S1130640CAF72BD0FE2F29D0660F771F881FBB1F38
S1130650261737074807AB07B0E809F0BB0B802D16
S1130660BF01FF2793585F4F3AF09E3F510578F042
S11306700C94D2030C941D045F3FE4F3983ED4F32E
S1130680869577956795B795F7959F5FC9F7880F16
S1130690911D9695879597F90895E1E0660F771F68
S11306A0881FBB1F621773078407BA0720F0621BF9
S11306B0730B840BBA0BEE1F88F7E09508950E9424
S11306C066036894B1110C941D0408950E940204F9
S11306D088F09F5798F0B92F9927B751B0F0E1F0FF
S11306E0660F771F881F991F1AF0BA95C9F714C0AF
S11306F0B13091F00E941C04B1E008950C941C04E4
S1130700672F782F8827B85F39F0B93FCCF38695E7
S113071077956795B395D9F73EF490958095709544
S113072061957F4F8F4F9F4F0895E89409C097FBC1
S11307303EF490958095709561957F4F8F4F9F4FB4
S11307409923A9F0F92F96E9BB279395F6958795F8
S113075077956795B795F111F8CFFAF4BB0F11F4BB
S113076060FF1BC06F5F7F4F8F4F9F4F16C0882362
S113077011F096E911C0772321F09EE8872F762F98
S113078005C0662371F096E8862F70E060E02AF0D9
S11307909A95660F771F881FDAF7880F96958795C5
S11307A097F9089597F99F6780E870E060E00895ED
S11307B09FEF80EC089500240A9416161706180675
S11307C00906089500240A94121613061406050651
S11307D00895092E0394000C11F4882352F0BB0FE2
S11307E040F4BF2B11F460FF04C06F5F7F4F8F4F45
S11307F09F4F089557FD9058440F551F59F05F3F80
S113080071F04795880F97FB991F61F09F3F79F02E
S113081087950895121613061406551FF2CF4695B0
S1130820F1DF08C0161617061806991FF1CF869532
S11308307105610508940895E894BB276627772716
S1130840CB0197F90895FC01918D228D892F90E0B9
S1130850805C9F4F821B91098F7399270895FC0137
S1130860918D828D981731F0828DE80FF11D858D61
S113087090E008958FEF9FEF0895FC01918D828D94
S1130880981761F0828DDF01A80FB11D5D968C91E0
S1130890928D9F5F9F73928F90E008958FEF9FEFEB
S11308A0089586EA95E0892B49F080E090E0892B51
S11308B029F00E94A60581110C9400000895FC0102
S11308C0848DDF01A80FB11DA35ABF4F2C91848DD5
S11308D090E001968F739927848FA689B7892C930A
S11308E0A089B1898C9180648C93938D848D9813A5
S11308F006C00288F389E02D80818F7D808308956E
S1130900CF93DF93EC01888D8823C9F0EA89FB89B2
S1130910808185FD05C0A889B9898C9186FD0FC0A9
S11309200FB607FCF5CF808185FFF2CFA889B9897E
S11309308C9185FFEDCFCE010E945F04E7CFDF915C
S1130940CF910895EF92FF920F931F93CF93DF936C
S1130950EC0181E0888F9B8D8C8D981305C0E8890C
S1130960F989808185FD24C0F62E0B8D10E00F5F80
S11309701F4F0F731127E02E8C8DE8120CC00FB699
S113098007FCFACFE889F989808185FFF5CFCE018C
S11309900E945F04F1CF8B8DFE01E80FF11DE35A35
S11309A0FF4FF0820B8FEA89FB898081806207C048
S11309B0EE89FF896083E889F98980818064808376
S11309C081E090E0DF91CF911F910F91FF90EF9024
S11309D00895CF92DF92EF92FF921F93CF93DF930C
S11309E0EC016A017B01122FE889F98982E0808396
S11309F04115514E61057105B1F060E079E08DE378
S1130A0090E0A70196010E949208DA01C9010197BA
S1130A10A109B109B695A79597958795AC0141159C
S1130A2080E15807A8F0E889F989108260E874E841
S1130A308EE190E0A70196010E949208BA01A901F3
S1130A404150510961097109769567955795479504
S1130A50EC85FD855083EE85FF854083188EEC89F7
S1130A60FD891083EA89FB89808180618083EA891A
S1130A70FB89808188608083EA89FB898081806822
S1130A808083EA89FB8980818F7D8083DF91CF9188
S1130A901F91FF90EF90DF90CF9008951F920F92D7
S1130AA00FB60F9211242F938F939F93EF93FF937D
S1130AB0E0913001F09131018081E0913601F091B3
S1130AC0370182FD12C09081809139018F5F8F734D
S1130AD020913A01821751F0E0913901F0E0E05E93
S1130AE0FE4F958F8093390101C08081FF91EF9172
S1130AF09F918F912F910F900FBE0F901F9018957B
S1130B001F920F920FB60F9211242F933F934F937E
S1130B105F936F937F938F939F93AF93BF93EF9361
S1130B20FF9380E291E00E945F04FF91EF91BF91F7
S1130B30AF919F918F917F916F915F914F913F9171
S1130B402F910F900FBE0F901F90189580E291E0A7
S1130B500E94230421E0892B09F420E0822F0895C8
S1130B60E0E2F1E01382128288EE93E0A0E0B0E0CC
S1130B7084839583A683B78384E191E09183808302
S1130B8085EC90E09587848784EC90E0978786874E
S1130B9080EC90E0918B808B81EC90E0938B828B46
S1130BA082EC90E0958B848B86EC90E0978B868B1F
S1130BB0118E128E138E148E089508950E948F073D
S1130BC00E94DD050E94D100C1E5D4E00E9401022B
S1130BD02097E1F30E945104F9CFCF92DF92EF9274
S1130BE0FF920F931F93CF93DF936C017A018B01D4
S1130BF0C0E0D0E0CE15DF0589F0D8016D918D01FC
S1130C00D601ED91FC910190F081E02DC60109958A
S1130C10892B11F47E0102C02196ECCFC701DF912C
S1130C20CF911F910F91FF90EF90DF90CF90089597
S1130C306115710579F0FB0101900020E9F7319706
S1130C40AF01461B570BDC01ED91FC910280F3814F
S1130C50E02D099480E090E00895DC01ED91FC9191
S1130C600190F081E02D09948F929F92AF92BF92F0
S1130C70CF92DF92EF92FF920F931F93CF93DF9364
S1130C80CDB7DEB7A1970FB6F894DEBF0FBECDBFC8
S1130C907C01D42EC52EDB0119A2223008F42AE0EF
S1130CA08E010F5D1F4F822E912CA12CB12C6D2D26
S1130CB07C2DCD01A50194010E949208D22EC32E51
S1130CC0DA01015011096A3071058105910510F4AA
S1130CD0605D01C0695CF8016083232B242B252B04
S1130CE031F7B801C7010E941806A1960FB6F8940F
S1130CF0DEBF0FBECDBFDF91CF911F910F91FF904B
S1130D00EF90DF90CF90BF90AF909F908F90089519
S1130D10CF92DF92EF92FF920F931F93CF93DF93C3
S1130D20EC016A017B012115310579F4E881F9812F
S1130D300190F081E02D642FDF91CF911F910F91ED
S1130D40FF90EF90DF90CF9009942A303105E9F4B9
S1130D5077FF1AC06DE20E942D068C0144275527A7
S1130D60BA014C195D096E097F092AE0CE010E947F
S1130D703406800F911FDF91CF911F910F91FF9047
S1130D80EF90DF90CF9008952AE0B701A601CE013D
S1130D90DF91CF911F910F91FF90EF90DF90CF9053
S1130DA00C9434069A01AB01770F660B770B0C9405
S1130DB088061F920F920FB60F9211242F933F9320
S1130DC08F939F93AF93BF938091BE019091BF0186
S1130DD0A091C001B091C1013091BD0123E0230F66
S1130DE02D3720F40196A11DB11D05C026E8230F5F
S1130DF00296A11DB11D2093BD018093BE01909365
S1130E00BF01A093C001B093C1018091C201909130
S1130E10C301A091C401B091C5010196A11DB11DEA
S1130E208093C2019093C301A093C401B093C50100
S1130E30BF91AF919F918F913F912F910F900FBED2
S1130E400F901F9018953FB7F8948091C20190912C
S1130E50C301A091C401B091C50126B5A89B05C0EA
S1130E602F3F19F00196A11DB11D3FBFBA2FA92F25
S1130E70982F8827820F911DA11DB11DBC01CD01A2
S1130E8042E0660F771F881F991F4A95D1F708958E
S1130E908F929F92AF92BF92CF92DF92EF92FF9286
S1130EA06B017C010E9423074B015C01C114D10436
S1130EB0E104F10401F10E9491080E942307DC017E
S1130EC0CB0188199909AA09BB09883E9340A10559
S1130ED0B10560F321E0C21AD108E108F10888EEF7
S1130EE0880E83E0981EA11CB11CC114D104E10436
S1130EF0F10419F7DBCFFF90EF90DF90CF90BF9014
S1130F00AF909F908F9008958230910538F0880FAC
S1130F10991F880F991F05970197F1F70895789401
S1130F2084B5826084BD84B5816084BD85B58260EA
S1130F3085BD85B5816085BDEEE6F0E08081816088
S1130F408083E1E8F0E01082808182608083808188
S1130F5081608083E0E8F0E0808181608083E1EB60
S1130F60F0E0808184608083E0EBF0E08081816048
S1130F708083EAE7F0E080818460808380818260FE
S1130F8080838081816080838081806880831092E7
S1130F90C1000895833081F028F4813099F08230C3
S1130FA0A1F008958730A9F08830B9F08430D1F4E5
S1130FB0809180008F7D03C0809180008F77809323
S1130FC08000089584B58F7702C084B58F7D84BD79
S1130FD008958091B0008F7703C08091B0008F7D19
S1130FE08093B0000895CF93DF9390E0FC01E45820
S1130FF0FF4F2491FC01E057FF4F8491882361F156
S113100090E0880F991FFC01E854FF4FC591D491DB
S1131010FC01E255FF4FA591B491611109C09FB73E
S1131020F8948881209582238883EC912E230BC029
S1131030623061F49FB7F8943881822F80958323BE
S11310408883EC912E2B2C939FBF06C08FB7F89406
S1131050E8812E2B28838FBFDF91CF9108951F93B2
S1131060CF93DF93282F30E0F901E859FF4F8491A3
S1131070F901E458FF4FD491F901E057FF4FC491AF
S1131080CC23C9F0162F81110E94CA07EC2FF0E07F
S1131090EE0FFF1FE255FF4FA591B4918FB7F8945F
S11310A0111105C09C91ED2FE095E92302C0EC914C
S11310B0ED2BEC938FBFDF91CF911F9108950F9388
S11310C01F9390E0FC01E458FF4F7491FC01E0573A
S11310D0FF4FE491662311F0672F01C060E0F0E058
S11310E0EE0FFF1FEC55FF4F8591949189019A01F2
S11310F03F70462F672F0E948C0061157105810592
S1131100910549F0DC01CB010196A11DB11DBC0183
S1131110CD019F7003C060E070E0CB011F910F917F
S113112008950895A1E21A2EAA1BBB1BFD010DC050
S1131130AA1FBB1FEE1FFF1FA217B307E407F50783
S113114020F0A21BB30BE40BF50B661F771F881F5F
S1131150991F1A9469F760957095809590959B01F5
S1131160AC01BD01CF010895052E97FB1EF4009438
S11311700E94CB0857FD07D00E94920807FC03D0B9
S11311804EF40C94CB0850954095309521953F4FE3
S11311904F4F5F4F089590958095709561957F4F5F
S11311A08F4F9F4F0895EE0FFF1F0590F491E02D90
S10911B00994F894FFCF3E
S11311B632000900080007000600050004000300C9
S11311C600000000A204ED0523043D042F0480045E
S9030000FC
