:100000000C9462000C948A000C948A000C948A0070
:100010000C948A000C948A000C948A000C948A0038
:100020000C948A000C948A000C948A000C948A0028
:100030000C948A000C948A000C948A000C948A0018
:100040000C9459060C948A000C94CC040C94FE0475
:100050000C948A000C948A000C948A000C948A00F8
:100060000C948A000C948A00000000080002010031
:100070000003040700000000000000000102040863
:100080001020408001020408102001020408102002
:10009000040404040404040402020202020203032E
:1000A00003030303000000002300260029000000D2
:1000B0000000250028002B0000000000240027007D
:1000C0002A002E0511241FBECFEFD8E0DEBFCDBF22
:1000D00011E0A0E0B1E0E6EBF0E102C005900D9286
:1000E000A432B107D9F721E0A4E2B1E001C01D922A
:1000F000AA3CB207E1F710E0C2E6D0E004C02197C5
:10010000FE010E945308C136D107C9F70E945C0561
:100110000C9459080C940000CF92DF92EF92FF925A
:100120000F931F93E82FF92F05C0015011092109E2
:10013000310961F1908196239417B9F305C00150FC
:1001400011092109310911F1908196239413F7CFF8
:10015000C12CD12CE12CF12C0AC08FEFC81AD80A7F
:10016000E80AF80A0C151D052E053F0579F0808177
:100170008623841791F36C2D7D2D8E2D9F2D1F913D
:100180000F91FF90EF90DF90CF90089560E070E0C6
:1001900080E090E01F910F91FF90EF90DF90CF9063
:1001A000089561E0809104010E94730761E08091ED
:1001B00002010E94730761E083E00E94730760E020
:1001C00082E00E94730761E088E00E94730760E0AC
:1001D00087E00E94730726E040E855E260E070E0A7
:1001E00084E291E00E94670466E071E084E291E0BD
:1001F0000C94AB05CF93DF93029719F4D7E0C8E0D6
:1002000002C0D2E0C3E060E08C2F0E94AF0781E023
:1002100090E00E94040761E08C2F0E94AF078AE003
:1002200090E00E94040760E08C2F0E94AF0720E45A
:1002300032E44FE050E061E08D2F0E94DF0722E0C2
:1002400030E040E050E00E943408CA01B9010E9449
:1002500015032DEC3CEC48EE51E40E946B020E9429
:10026000DD0221E06A307105810591050CF020E086
:10027000822FDF91CF910895EF92FF920F931F93FA
:10028000CF93DF938C017B01C2E3D0E064E170E0A7
:1002900080E090E00E94C8062197C8010E94FA0001
:1002A000811105C0C230D1053CF080E008C0C70113
:1002B0000E94FA008823B1F3209741F781E0DF9193
:1002C000CF911F910F91FF90EF900895CF93DF93FF
:1002D000EC0184E291E00E94A103892B49F44AE0F9
:1002E00050E0BE0184E291E0DF91CF910C94520680
:1002F000DF91CF91089584E090E00C94660183E053
:1003000090E00E94660164E670E080E090E00C946A
:10031000C80685E090E00E94660164E670E080E037
:1003200090E00C94C80681E090E00E946601609124
:10033000000170910101072E000C880B990B0C94A1
:10034000C80682E090E00E94660160910001709111
:100350000101072E000C880B990B0C94C806CF9254
:10036000DF92EF92FF920F931F93CF93DF9360E0A2
:100370008AE00E94AF0781E090E00E94FA008111BC
:100380000CC082E090E00E94FA008823A1F3EE24E2
:10039000E394F12CC2E0D0E005C092E0E92EF12C0C
:1003A000C1E0D0E005E010E08AE0C82ED12C65E085
:1003B00070E080E090E00E94C806C114D10409F406
:1003C00063C0C7010E94FA00882309F43FC0EA9481
:1003D000EF28F1F461E070E0CE010E943C01882337
:1003E000A1F00E947B01CE010E94FA008823C1F196
:1003F00081E090E00E94FA00882391F16FE070E0C4
:1004000080E090E00E94C806EECF0E947F0128C0E5
:1004100062E070E0CE010E943C018823A1F00E94BE
:100420007B01CE010E94FA008823D1F082E090E0A7
:100430000E94FA008823A1F06FE070E080E090E075
:100440000E94C806EECF0E9489010AC065E070E0F4
:1004500080E090E00E94C80681E0C81AD108ADCFC4
:1004600064E670E080E090E00E94C80664E670E018
:1004700080E090E0DF91CF911F910F91FF90EF907E
:10048000DF90CF900C94C8060150110909F08FCF6E
:10049000CE010E94FA00882309F46DCF219749F418
:1004A00081E090E00E94FA00882361F00E949301AD
:1004B000F7CF82E090E00E94FA00882319F00E94B2
:1004C000A101F7CFDF91CF911F910F91FF90EF9096
:1004D000DF90CF9008950E947F020C9467030E94E2
:1004E000600358F00E94590340F029F45F3F29F05F
:1004F0000C94500351110C949B030C9456030E94CE
:10050000780368F39923B1F3552391F3951B550BA9
:10051000BB27AA2762177307840738F09F5F5F4FD6
:10052000220F331F441FAA1FA9F335D00E2E3AF015
:10053000E0E832D091505040E695001CCAF72BD02D
:10054000FE2F29D0660F771F881FBB1F261737077E
:100550004807AB07B0E809F0BB0B802DBF01FF27B0
:1005600093585F4F3AF09E3F510578F00C9450033A
:100570000C949B035F3FE4F3983ED4F38695779504
:100580006795B795F7959F5FC9F7880F911D969569
:10059000879597F90895E1E0660F771F881FBB1FC5
:1005A000621773078407BA0720F0621B730B840B72
:1005B000BA0BEE1F88F7E09508950E94E402689454
:1005C000B1110C949B0308950E94800388F09F57FB
:1005D00098F0B92F9927B751B0F0E1F0660F771F67
:1005E000881F991F1AF0BA95C9F714C0B13091F05D
:1005F0000E949A03B1E008950C949A03672F782F14
:100600008827B85F39F0B93FCCF386957795679521
:10061000B395D9F73EF490958095709561957F4F8D
:100620008F4F9F4F0895E89409C097FB3EF4909533
:100630008095709561957F4F8F4F9F4F9923A9F0BB
:10064000F92F96E9BB279395F6958795779567954A
:10065000B795F111F8CFFAF4BB0F11F460FF1BC08E
:100660006F5F7F4F8F4F9F4F16C0882311F096E921
:1006700011C0772321F09EE8872F762F05C06623CF
:1006800071F096E8862F70E060E02AF09A95660F88
:10069000771F881FDAF7880F9695879597F9089541
:1006A00097F99F6780E870E060E008959FEF80EC25
:1006B000089500240A9416161706180609060895C8
:1006C00000240A9412161306140605060895092E2E
:1006D0000394000C11F4882352F0BB0F40F4BF2B9D
:1006E00011F460FF04C06F5F7F4F8F4F9F4F0895DD
:1006F00057FD9058440F551F59F05F3F71F04795D3
:10070000880F97FB991F61F09F3F79F087950895B7
:10071000121613061406551FF2CF4695F1DF08C0D6
:10072000161617061806991FF1CF869571056105F3
:1007300008940895E894BB2766277727CB0197F99B
:100740000895FC01918D228D892F90E0805C9F4F50
:10075000821B91098F7399270895FC01918D828DD9
:10076000981731F0828DE80FF11D858D90E0089586
:100770008FEF9FEF0895FC01918D828D981761F0A6
:10078000828DDF01A80FB11D5D968C91928D9F5FC8
:100790009F73928F90E008958FEF9FEF089584E20A
:1007A00095E0892B49F080E090E0892B29F00E94A8
:1007B000240581110C9400000895FC01848DDF0153
:1007C000A80FB11DA35ABF4F2C91848D90E00196C4
:1007D0008F739927848FA689B7892C93A089B189B3
:1007E0008C9180648C93938D848D981306C00288BD
:1007F000F389E02D80818F7D80830895CF93DF93EF
:10080000EC01888D8823C9F0EA89FB89808185FD08
:1008100005C0A889B9898C9186FD0FC00FB607FC69
:10082000F5CF808185FFF2CFA889B9898C9185FFAA
:10083000EDCFCE010E94DD03E7CFDF91CF91089588
:10084000EF92FF920F931F93CF93DF93EC0181E020
:10085000888F9B8D8C8D981305C0E889F9898081DC
:1008600085FD24C0F62E0B8D10E00F5F1F4F0F7318
:100870001127E02E8C8DE8120CC00FB607FCFACFC2
:10088000E889F989808185FFF5CFCE010E94DD03DB
:10089000F1CF8B8DFE01E80FF11DE35AFF4FF0827F
:1008A0000B8FEA89FB898081806207C0EE89FF890E
:1008B0006083E889F98980818064808381E090E0A9
:1008C000DF91CF911F910F91FF90EF900895CF92FC
:1008D000DF92EF92FF921F93CF93DF93EC016A01B7
:1008E0007B01122FE889F98982E080834115514EFE
:1008F00061057105B1F060E079E08DE390E0A7015A
:1009000096010E941208DA01C9010197A109B109F3
:10091000B695A79597958795AC01411580E1580745
:10092000A8F0E889F989108260E874E88EE190E027
:10093000A70196010E941208BA01A901415051096C
:10094000610971097695679557954795EC85FD8501
:100950005083EE85FF854083188EEC89FD891083D6
:10096000EA89FB89808180618083EA89FB898081B3
:1009700088608083EA89FB89808180688083EA8936
:10098000FB8980818F7D8083DF91CF911F91FF90C4
:10099000EF90DF90CF9008951F920F920FB60F92B5
:1009A00011242F938F939F93EF93FF93E091340142
:1009B000F09135018081E0913A01F0913B0182FD97
:1009C00012C0908180913D018F5F8F7320913E0115
:1009D000821751F0E0913D01F0E0EC5DFE4F958F04
:1009E00080933D0101C08081FF91EF919F918F9194
:1009F0002F910F900FBE0F901F9018951F920F927E
:100A00000FB60F9211242F933F934F935F936F93E1
:100A10007F938F939F93AF93BF93EF93FF9384E262
:100A200091E00E94DD03FF91EF91BF91AF919F9103
:100A30008F917F916F915F914F913F912F910F9087
:100A40000FBE0F901F90189584E291E00E94A103C1
:100A500021E0892B09F420E0822F0895E4E2F1E0FF
:100A60001382128288EE93E0A0E0B0E08483958345
:100A7000A683B78387E191E09183808385EC90E042
:100A80009587848784EC90E09787868780EC90E058
:100A9000918B808B81EC90E0938B828B82EC90E049
:100AA000958B848B86EC90E0978B868B118E128EC3
:100AB000138E148E089508950E940F070E945B05FF
:100AC0000E94D100CFECD3E00E94AF012097E1F368
:100AD0000E94CF03F9CFCF92DF92EF92FF920F9354
:100AE0001F93CF93DF936C017A018B01C0E0D0E0BC
:100AF000CE15DF0589F0D8016D918D01D601ED91FC
:100B0000FC910190F081E02DC6010995892B11F42B
:100B10007E0102C02196ECCFC701DF91CF911F91DA
:100B20000F91FF90EF90DF90CF90089561157105C0
:100B300079F0FB0101900020E9F73197AF01461BE6
:100B4000570BDC01ED91FC910280F381E02D0994BB
:100B500080E090E008950C949605DC01ED91FC9105
:100B60000190F081E02D09948F929F92AF92BF92F5
:100B7000CF92DF92EF92FF920F931F93CF93DF9369
:100B8000CDB7DEB7A1970FB6F894DEBF0FBECDBFCD
:100B90007C01D42EC52EDB0119A2223008F42AE0F4
:100BA0008E010F5D1F4F822E912CA12CB12C6D2D2B
:100BB0007C2DCD01A50194010E941208D22EC32ED6
:100BC000DA01015011096A3071058105910510F4AF
:100BD000605D01C0695CF8016083232B242B252B09
:100BE00031F7B801C7010E949605A1960FB6F89497
:100BF000DEBF0FBECDBFDF91CF911F910F91FF9050
:100C0000EF90DF90CF90BF90AF909F908F9008951E
:100C1000CF92DF92EF92FF920F931F93CF93DF93C8
:100C2000EC016A017B012115310579F4E881F98134
:100C30000190F081E02D642FDF91CF911F910F91F2
:100C4000FF90EF90DF90CF9009942A303105E9F4BE
:100C500077FF1AC06DE20E94AD058C01442755272D
:100C6000BA014C195D096E097F092AE0CE010E9484
:100C7000B405800F911FDF91CF911F910F91FF90CD
:100C8000EF90DF90CF9008952AE0B701A601CE0142
:100C9000DF91CF911F910F91FF90EF90DF90CF9058
:100CA0000C94B4059A01AB01770F660B770B0C948B
:100CB00008061F920F920FB60F9211242F933F93A5
:100CC0008F939F93AF93BF938091C2019091C30183
:100CD000A091C401B091C5013091C10123E0230F5F
:100CE0002D3720F40196A11DB11D05C026E8230F64
:100CF0000296A11DB11D2093C1018093C201909362
:100D0000C301A093C401B093C5018091C601909125
:100D1000C701A091C801B091C9010196A11DB11DE3
:100D20008093C6019093C701A093C801B093C901F5
:100D3000BF91AF919F918F913F912F910F900FBED7
:100D40000F901F9018953FB7F8948091C60190912D
:100D5000C701A091C801B091C90126B5A89B05C0E3
:100D60002F3F19F00196A11DB11D3FBFBA2FA92F2A
:100D7000982F8827820F911DA11DB11DBC01CD01A7
:100D800042E0660F771F881F991F4A95D1F7089593
:100D90008F929F92AF92BF92CF92DF92EF92FF928B
:100DA0006B017C010E94A3064B015C01C114D104BC
:100DB000E104F10401F10E9411080E94A306DC0184
:100DC000CB0188199909AA09BB09883E9340A1055E
:100DD000B10560F321E0C21AD108E108F10888EEFC
:100DE000880E83E0981EA11CB11CC114D104E1043B
:100DF000F10419F7DBCFFF90EF90DF90CF90BF9019
:100E0000AF909F908F9008958230910538F0880FB1
:100E1000991F880F991F05970197F1F70895789406
:100E200084B5826084BD84B5816084BD85B58260EF
:100E300085BD85B5816085BDEEE6F0E0808181608D
:100E40008083E1E8F0E0108280818260808380818D
:100E500081608083E0E8F0E0808181608083E1EB65
:100E6000F0E0808184608083E0EBF0E0808181604D
:100E70008083EAE7F0E08081846080838081826003
:100E800080838081816080838081806880831092EC
:100E9000C1000895833081F028F4813099F08230C8
:100EA000A1F008958730A9F08830B9F08430D1F4EA
:100EB000809180008F7D03C0809180008F77809328
:100EC0008000089584B58F7702C084B58F7D84BD7E
:100ED00008958091B0008F7703C08091B0008F7D1E
:100EE0008093B0000895CF93DF9390E0FC01E45825
:100EF000FF4F2491FC01E057FF4F8491882361F15B
:100F000090E0880F991FFC01E854FF4FC591D491E0
:100F1000FC01E255FF4FA591B491611109C09FB743
:100F2000F8948881209582238883EC912E230BC02E
:100F3000623061F49FB7F8943881822F80958323C3
:100F40008883EC912E2B2C939FBF06C08FB7F8940B
:100F5000E8812E2B28838FBFDF91CF9108951F93B7
:100F6000CF93DF93282F30E0F901E859FF4F8491A8
:100F7000F901E458FF4FD491F901E057FF4FC491B4
:100F8000CC23C9F0162F81110E944A07EC2FF0E004
:100F9000EE0FFF1FE255FF4FA591B4918FB7F89464
:100FA000111105C09C91ED2FE095E92302C0EC9151
:100FB000ED2BEC938FBFDF91CF911F9108950F938D
:100FC0001F9390E0FC01E458FF4F7491FC01E0573F
:100FD000FF4FE491662311F0672F01C060E0F0E05D
:100FE000EE0FFF1FEC55FF4F8591949189019A01F7
:100FF0003F70462F672F0E948C0061157105810597
:10100000910549F0DC01CB010196A11DB11DBC0188
:10101000CD019F7003C060E070E0CB011F910F9184
:1010200008950895A1E21A2EAA1BBB1BFD010DC055
:10103000AA1FBB1FEE1FFF1FA217B307E407F50788
:1010400020F0A21BB30BE40BF50B661F771F881F64
:10105000991F1A9469F760957095809590959B01FA
:10106000AC01BD01CF010895052E97FB1EF400943D
:101070000E944B0857FD07D00E94120807FC03D0BE
:101080004EF40C944B0850954095309521953F4F68
:101090004F4F5F4F089590958095709561957F4F64
:1010A0008F4F9F4F0895EE0FFF1F0590F491E02D95
:0610B0000994F894FFCF43
:1010B600C80006000A0041542B42542D52656D6F3C
:1010C6007465000000000020046B05A103BB03AD9E
:0410D60003FE030012
:00000001FF
