S0150000736B657463685F7365703036612E737265631F
S11300000C9462000C948A000C948A000C948A006C
S11300100C948A000C948A000C948A000C948A0034
S11300200C948A000C948A000C948A000C948A0024
S11300300C948A000C948A000C948A000C948A0014
S11300400C9488050C948A000C94B7040C94E9046D
S11300500C948A000C948A000C948A000C948A00F4
S11300600C948A000C948A0000000008000201002D
S1130070000304070000000000000000010204085F
S113008010204080010204081020010204081020FE
S1130090040404040404040402020202020203032A
S11300A003030303000000002300260029000000CE
S11300B00000250028002B00000000002400270079
S11300C02A00190511241FBECFEFD8E0DEBFCDBF33
S11300D011E0A0E0B1E0E4E1FFE002C005900D9280
S11300E0A631B107D9F721E0A6E1B1E001C01D9224
S11300F0AC3BB207E1F710E0C2E6D0E004C02197C0
S1130100FE010E948207C136D107C9F70E94470544
S11301100C9488070C940000CF92DF92EF92FF9228
S11301200F931F93E82FF92F05C0015011092109DE
S1130130310961F1908196239417B9F305C00150F8
S113014011092109310911F1908196239413F7CFF4
S1130150C12CD12CE12CF12C0AC08FEFC81AD80A7B
S1130160E80AF80A0C151D052E053F0579F0808173
S11301708623841791F36C2D7D2D8E2D9F2D1F9139
S11301800F91FF90EF90DF90CF90089560E070E0C2
S113019080E090E01F910F91FF90EF90DF90CF905F
S11301A0089561E0809104010E94A20661E08091BB
S11301B002010E94A20661E083E00E94A20660E0C0
S11301C082E00E94A20661E088E00E94A20660E04C
S11301D087E00E94A20626E040E855E260E070E075
S11301E086E191E00C945204CF93DF93029719F4C3
S11301F0D7E0C8E002C0D2E0C3E060E08C2F0E94E8
S1130200DE0681E090E00E94330661E08C2F0E94BC
S1130210DE068AE090E00E94330660E08C2F0E94A4
S1130220DE0620E432E44FE050E061E08D2F0E94CE
S11302300E0722E030E040E050E00E946307CA016C
S1130240B9010E9400032DEC3CEC48EE51E40E94FD
S113025056020E94C80221E06A30710581059105A9
S11302600CF020E0822FDF91CF910895EF92FF925E
S11302700F931F93CF93DF938C017B01C2E3D0E0F4
S113028064E170E080E090E00E94F7052197C801E6
S11302900E94F400811105C0C230D1053CF080E019
S11302A008C0C7010E94F4008823B1F3209741F7E6
S11302B081E0DF91CF911F910F91FF90EF9008950E
S11302C0CF93DF931F92CDB7DEB7682F86E191E01D
S11302D069830E948C036981892B39F486E191E05A
S11302E00F90DF91CF910C9481050F90DF91CF9106
S11302F0089584E60C94600183E60E94600164E63C
S113030070E080E090E00C94F70585E60E946001BF
S113031064E670E080E090E00C94F70581E60E94CA
S113032060016091000170910101072E000C880B9F
S1130330990B0C94F70582E60E946001609100011C
S113034070910101072E000C880B990B0C94F70592
S1130350CF92DF92EF92FF920F931F93CF93DF938D
S113036060E08AE00E94DE0664EF71E080E090E0E5
S11303700E94F70581E090E00E94F400882351F088
S113038061E08AE00E94DE0622E0E22EF12CC1E068
S1130390D0E00FC082E090E00E94F400882321F3B3
S11303A061E08AE00E94DE06EE24E394F12CC2E0D0
S11303B0D0E005E010E08AE0C82ED12C65E070E0C2
S11303C080E090E00E94F705C114D10409F447C00D
S11303D0C7010E94F400882321F1EA94EF28F1F484
S11303E061E070E0CE010E9436018823A1F00E94F2
S11303F07901CE010E94F4008823E9F081E090E0C5
S11304000E94F4008823B9F06FE070E080E090E08F
S11304100E94F705EECF0E947C010DC00E94850169
S11304200AC065E070E080E090E00E94F70581E09A
S1130430C81AD108C9CF64E670E080E090E00E9459
S1130440F70564E670E080E090E0DF91CF911F91C2
S11304500F91FF90EF90DF90CF900C94F70501502F
S1130460110909F0ABCFCE010E94F400882309F4EE
S11304707BCF219749F481E090E00E94F400882327
S113048061F00E948E01F7CF82E090E00E94F400B8
S1130490882319F00E949B01F7CFDF91CF911F9120
S11304A00F91FF90EF90DF90CF9008950E946A0221
S11304B00C9452030E944B0358F00E94440340F0F2
S11304C029F45F3F29F00C943B0351110C948603EB
S11304D00C9441030E94630368F39923B1F35523F9
S11304E091F3951B550BBB27AA2762177307840743
S11304F038F09F5F5F4F220F331F441FAA1FA9F3D9
S113050035D00E2E3AF0E0E832D091505040E695C6
S1130510001CCAF72BD0FE2F29D0660F771F881F27
S1130520BB1F261737074807AB07B0E809F0BB0B1A
S1130530802DBF01FF2793585F4F3AF09E3F51052E
S113054078F00C943B030C9486035F3FE4F3983EED
S1130550D4F3869577956795B795F7959F5FC9F717
S1130560880F911D9695879597F90895E1E0660F98
S1130570771F881FBB1F621773078407BA0720F011
S1130580621B730B840BBA0BEE1F88F7E09508957A
S11305900E94CF026894B1110C94860308950E94BE
S11305A06B0388F09F5798F0B92F9927B751B0F093
S11305B0E1F0660F771F881F991F1AF0BA95C9F7E3
S11305C014C0B13091F00E948503B1E008950C94F9
S11305D08503672F782F8827B85F39F0B93FCCF3AC
S11305E0869577956795B395D9F73EF49095809560
S11305F0709561957F4F8F4F9F4F0895E89409C080
S113060097FB3EF490958095709561957F4F8F4F41
S11306109F4F9923A9F0F92F96E9BB279395F69557
S1130620879577956795B795F111F8CFFAF4BB0FD5
S113063011F460FF1BC06F5F7F4F8F4F9F4F16C039
S1130640882311F096E911C0772321F09EE8872FC3
S1130650762F05C0662371F096E8862F70E060E07F
S11306602AF09A95660F771F881FDAF7880F9695F8
S1130670879597F9089597F99F6780E870E060E09F
S113068008959FEF80EC089500240A941616170627
S113069018060906089500240A941216130614066F
S11306A005060895092E0394000C11F4882352F0D2
S11306B0BB0F40F4BF2B11F460FF04C06F5F7F4F8A
S11306C08F4F9F4F089557FD9058440F551F59F071
S11306D05F3F71F04795880F97FB991F61F09F3F2B
S11306E079F087950895121613061406551FF2CF54
S11306F04695F1DF08C0161617061806991FF1CFA4
S113070086957105610508940895E894BB276627CA
S11307107727CB0197F90895FC01918D228D892FBC
S113072090E0805C9F4F821B91098F7399270895F5
S1130730FC01918D828D981731F0828DE80FF11DA7
S1130740858D90E008958FEF9FEF0895FC01918DC2
S1130750828D981761F0828DDF01A80FB11D5D961F
S11307608C91928D9F5F9F73928F90E008958FEF8D
S11307709FEF08958FE095E0892B49F080E090E0A9
S1130780892B29F00E940F0581110C940000089513
S1130790FC01848DDF01A80FB11DA35ABF4F2C911A
S11307A0848D90E001968F739927848FA689B789E9
S11307B02C93A089B1898C9180648C93938D848DC2
S11307C0981306C00288F389E02D80818F7D808391
S11307D00895CF93DF93EC01888D8823C9F0EA89CB
S11307E0FB89808185FD05C0A889B9898C9186FD26
S11307F00FC00FB607FCF5CF808185FFF2CFA88923
S1130800B9898C9185FFEDCFCE010E94C803E7CF53
S1130810DF91CF910895EF92FF920F931F93CF939F
S1130820DF93EC0181E0888F9B8D8C8D981305C03C
S1130830E889F989808185FD24C0F62E0B8D10E0AE
S11308400F5F1F4F0F731127E02E8C8DE8120CC021
S11308500FB607FCFACFE889F989808185FFF5CFC7
S1130860CE010E94C803F1CF8B8DFE01E80FF11D6C
S1130870E35AFF4FF0820B8FEA89FB898081806203
S113088007C0EE89FF896083E889F98980818064E3
S1130890808381E090E0DF91CF911F910F91FF90D1
S11308A0EF900895CF92DF92EF92FF921F93CF9330
S11308B0DF93EC016A017B01122FE889F98982E058
S11308C080834115514E61057105B1F060E079E016
S11308D08DE390E0A70196010E944107DA01C90166
S11308E00197A109B109B695A79597958795AC018C
S11308F0411580E15807A8F0E889F989108260E879
S113090074E88EE190E0A70196010E944107BA01C4
S1130910A901415051096109710976956795579567
S11309204795EC85FD855083EE85FF854083188EC1
S1130930EC89FD891083EA89FB8980818061808349
S1130940EA89FB89808188608083EA89FB898081C8
S113095080688083EA89FB8980818F7D8083DF9131
S1130960CF911F91FF90EF90DF90CF9008951F9249
S11309700F920FB60F9211242F938F939F93EF939F
S1130980FF93E0912601F09127018081E0912C01F1
S1130990F0912D0182FD12C0908180912F018F5F13
S11309A08F7320913001821751F0E0912F01F0E014
S11309B0EA5EFE4F958F80932F0101C08081FF91E5
S11309C0EF919F918F912F910F900FBE0F901F90D9
S11309D018951F920F920FB60F9211242F933F93E5
S11309E04F935F936F937F938F939F93AF93BF9333
S11309F0EF93FF9386E191E00E94C803FF91EF918A
S1130A00BF91AF919F918F917F916F915F914F9122
S1130A103F912F910F900FBE0F901F90189586E174
S1130A2091E00E948C0321E0892B09F420E0822FBD
S1130A300895E6E1F1E01382128288EE93E0A0E0EB
S1130A40B0E084839583A683B7838AE091E09183A1
S1130A50808385EC90E09587848784EC90E0978789
S1130A60868780EC90E0918B808B81EC90E0938B77
S1130A70828B82EC90E0958B848B86EC90E0978B54
S1130A80868B118E128E138E148E089508950E94F3
S1130A903E060E9446050E94D100CAEBD3E00E94A4
S1130AA0A8012097E1F30E94BA03F9CFCF92DF9215
S1130AB0EF92FF920F931F93CF93DF936C017A0110
S1130AC08B01C0E0D0E0CE15DF0589F0D8016D912F
S1130AD08D01D601ED91FC910190F081E02DC601CC
S1130AE00995892B11F47E0102C02196ECCFC70130
S1130AF0DF91CF911F910F91FF90EF90DF90CF90F6
S1130B000895DC01ED91FC910190F081E02D0994B0
S1130B101F920F920FB60F9211242F933F938F932E
S1130B209F93AF93BF938091B4019091B501A0912D
S1130B30B601B091B7013091B30123E0230F2D37F3
S1130B4020F40196A11DB11D05C026E8230F0296CD
S1130B50A11DB11D2093B3018093B4019093B501FD
S1130B60A093B601B093B7018091B8019091B901F7
S1130B70A091BA01B091BB010196A11DB11D809352
S1130B80B8019093B901A093BA01B093BB01BF918E
S1130B90AF919F918F913F912F910F900FBE0F9026
S1130BA01F9018953FB7F8948091B8019091B901BE
S1130BB0A091BA01B091BB0126B5A89B05C02F3FF7
S1130BC019F00196A11DB11D3FBFBA2FA92F982F6F
S1130BD08827820F911DA11DB11DBC01CD0142E0EA
S1130BE0660F771F881F991F4A95D1F708958F9232
S1130BF09F92AF92BF92CF92DF92EF92FF926B01DE
S1130C007C010E94D2054B015C01C114D104E104B2
S1130C10F10401F10E9440070E94D205DC01CB01DE
S1130C2088199909AA09BB09883E9340A105B10511
S1130C3060F321E0C21AD108E108F10888EE880EB9
S1130C4083E0981EA11CB11CC114D104E104F10479
S1130C5019F7DBCFFF90EF90DF90CF90BF90AF906C
S1130C609F908F9008958230910538F0880F991FD6
S1130C70880F991F05970197F1F70895789484B523
S1130C80826084BD84B5816084BD85B5826085BD84
S1130C9085B5816085BDEEE6F0E08081816080836A
S1130CA0E1E8F0E01082808182608083808181604D
S1130CB08083E0E8F0E0808181608083E1EBF0E014
S1130CC0808184608083E0EBF0E0808181608083B8
S1130CD0EAE7F0E0808184608083808182608083A1
S1130CE08081816080838081806880831092C100CC
S1130CF00895833081F028F4813099F08230A1F096
S1130D0008958730A9F08830B9F08430D1F4809107
S1130D1080008F7D03C0809180008F778093800056
S1130D20089584B58F7702C084B58F7D84BD0895FE
S1130D308091B0008F7703C08091B0008F7D809345
S1130D40B0000895CF93DF9390E0FC01E458FF4F87
S1130D502491FC01E057FF4F8491882361F190E0D6
S1130D60880F991FFC01E854FF4FC591D491FC01F1
S1130D70E255FF4FA591B491611109C09FB7F89452
S1130D808881209582238883EC912E230BC06230C6
S1130D9061F49FB7F8943881822F809583238883E8
S1130DA0EC912E2B2C939FBF06C08FB7F894E8814B
S1130DB02E2B28838FBFDF91CF9108951F93CF935C
S1130DC0DF93282F30E0F901E859FF4F8491F901AE
S1130DD0E458FF4FD491F901E057FF4FC491CC235D
S1130DE0C9F0162F81110E947906EC2FF0E0EE0F66
S1130DF0FF1FE255FF4FA591B4918FB7F8941111DD
S1130E0005C09C91ED2FE095E92302C0EC91ED2BF8
S1130E10EC938FBFDF91CF911F9108950F931F9390
S1130E2090E0FC01E458FF4F7491FC01E057FF4F40
S1130E30E491662311F0672F01C060E0F0E0EE0F4B
S1130E40FF1FEC55FF4F8591949189019A013F70E2
S1130E50462F672F0E948C0061157105810591054D
S1130E6049F0DC01CB010196A11DB11DBC01CD01EE
S1130E709F7003C060E070E0CB011F910F91089553
S1130E800895A1E21A2EAA1BBB1BFD010DC0AA1FC7
S1130E90BB1FEE1FFF1FA217B307E407F50720F0DF
S1130EA0A21BB30BE40BF50B661F771F881F991F5A
S1130EB01A9469F760957095809590959B01AC01A3
S1130EC0BD01CF010895052E97FB1EF400940E94E6
S1130ED07A0757FD07D00E94410707FC03D04EF460
S1130EE00C947A0750954095309521953F4F4F4F7C
S1130EF05F4F089590958095709561957F4F8F4FC2
S1130F009F4F0895EE0FFF1F0590F491E02D099473
S1070F10F894FFCF7F
S1130F14C80006000A00000000000B0456058C03F8
S1090F24A6039803E90393
S9030000FC
